{
  "contractName": "HelloWorld",
  "abi": [
    {
      "constant": true,
      "inputs": [],
      "name": "helloWorld",
      "outputs": [
        {
          "name": "",
          "type": "string"
        }
      ],
      "payable": false,
      "stateMutability": "pure",
      "type": "function"
    }
  ],
  "bytecode": "0x608060405234801561001057600080fd5b50610114806100206000396000f3fe6080604052348015600f57600080fd5b506004361060285760003560e01c8063c605f76c14602d575b600080fd5b603360ab565b6040518080602001828103825283818151815260200191508051906020019080838360005b8381101560715780820151818401526020810190506058565b50505050905090810190601f168015609d5780820380516001836020036101000a031916815260200191505b509250505060405180910390f35b60606040518060400160405280600b81526020017f48656c6c6f20576f726c6400000000000000000000000000000000000000000081525090509056fea165627a7a72305820230a7966c1fbccea7a66f171ec7f2340abda5af1e9a36ac494f618471852e3f70029",
  "source": "pragma solidity ^0.5.8;\r\n\r\ncontract HelloWorld {\r\n    \r\n    function helloWorld () public pure returns (string memory) {\r\n        return \"Hello World\";\r\n    }\r\n}\r\n",
  "sourcePath": "C:/Users/dias9/Documents/ethereum_development/contracts/HelloWorld.sol",
  "compiler": {
    "name": "solc",
    "version": "0.5.8+commit.23d335f2.Emscripten.clang"
  },
  "schemaVersion": "3.0.16",
  "updatedAt": "2019-10-27T21:27:50.846Z",
  "devdoc": {
    "methods": {}
  },
  "userdoc": {
    "methods": {}
  }
}